:020000040800F2
:10000000981F0020F5400008890300088B030008B2
:100010008D0300088F030008910300080000000012
:100020000000000000000000000000009303000832
:1000300095030008000000009703000899030008DA
:100040000F4100080F4100080F4100080F41000850
:100050000F4100080F4100080F4100080F41000840
:100060000F4100080F4100080F4100080F41000830
:100070000F4100080F4100080F4100080F41000820
:100080000F4100080F4100080F4100080F41000810
:100090000F4100080F4100080F4100089940000877
:1000A0000F4100080F4100080F4100080F410008F0
:1000B0000F410008037D00080F4100080F410008B0
:1000C0000F4100080F4100080F4100080F410008D0
:1000D0000F410008753F00080F4100080F4100085C
:1000E0000F4100080F4100080F410008DFF810D051
:1000F0000AF038FE004800478D020008AFF3008088
:10010000981F002038B50121082004F044FA4FF46C
:100110008054ADF8004010208DF8030002205E4DA1
:100120008DF802006946284604F04DF8214628461D
:1001300004F0B3F838BD594810B5017800290BD048
:100140000021017000F0F4FD00F0A6FF00F03EFF7A
:10015000BDE8104000F0CBBE10BD70B50024FFF725
:10016000D1FF03F06DFE4FF4A06004F0F7FB00F048
:10017000C1F900F051FC03F031FF07F08BFD4FF4A3
:10018000FA7547A1284609F043FE49A10A2009F063
:100190003FFE4CA10A2009F03BFE4FA10A2009F0C6
:1001A00037FE52A10A2009F033FE55A10A2009F0BA
:1001B0002FFE58A10A2009F02BFE5BA10A2009F0AE
:1001C00027FE5EA10A2009F023FE00F0B7FA3220D4
:1001D00003F064FE01F0B1FA322004E05CA10120DA
:1001E00009F016FE642003F059FE02F0D7FE641CED
:1001F000E4B20246052C01D2002AEFD158A12846CC
:1002000009F006FE5A4A00215A4811604FF48061F5
:100210000AF0CBF800F0BCFC05F07AFF00F0F6F92C
:1002200005F096FF00F046FE05F030FC00F0E2FC21
:1002300009F0AEF850A1284609F0EAFD504806F052
:10024000FBF8BDE8704006F0FAB810B508F094FB72
:1002500009F000F908B105F086FF00F050FA08F047
:10026000C5FA09F0F7F818B105F06BFC06F091F942
:100270004448007808B1FFF75EFF09F0C1F8BDE817
:1002800010404FF480613B480AF08FB8FFF765FFDC
:10029000FFF7DBFFFCE70000000C014075010020C8
:1002A000696E69745F4F4C45443A204F4B00000023
:1002B0002D2D2D2077656C636F6D6520212D2D2DE3
:1002C0000000000020205F2020205F202020205FF1
:1002D0002020202000000000207C207C207C207C2E
:1002E00020207C5F7C20202000000000207C207CDF
:1002F0005F7C207C2020205F202020200000000048
:10030000207C20205F20207C20207C207C2020203E
:1003100000000000207C207C207C207C20207C2091
:100320007C20202000000000207C5F7C207C5F7C03
:1003300020207C5F7C202020000000002020202046
:10034000202020202020202020202020000000002D
:100350004D50555F4572726F723A2564000000007F
:10036000696E69745F4D50553A204F4B0000000094
:100370007C0100203C0200205354415254202100B3
:10038000C7810008000000207047FEE7FEE7FEE797
:10039000FEE7704770477047704700000CB50022B9
:1003A0004C4800920192016841F4803101604FF4A1
:1003B000A063016801F4003101910099491C00918A
:1003C000019911B900999942F3D10168890333D594
:1003D0000121019140490A6842F010020A600A684E
:1003E00022F003020A600A6842F002020A604168D1
:1003F000416041684160416841F480614160416809
:1004000021F47C114160416841F4E81141600168C8
:1004100041F08071016001688901FCD5416821F0DB
:1004200003014160416841F0020141604168C1F34C
:1004300081010229FAD10CBD01920CBD254810B5ED
:10044000016841F0010101604168244A11404160A6
:100450000168234A11400160016821F48021016094
:10046000416821F4FE0141604FF41F018160FFF7F4
:1004700095FF1C494FF00060086010BD154A10B58B
:100480005068194B10F00C01184803D0042901D012
:10049000082901D0036012E05168536801F470111B
:1004A0004FF0020413F4803F04EB914102D05368F3
:1004B0009B0301D50E4B00E00B4B59430160516883
:1004C0000A4AC1F30311121D515C0268CA4002605E
:1004D00010BD000000100240002002400000FFF8A4
:1004E000FFFFF6FE08ED00E000127A000400002095
:1004F00000093D0010B508F0B9FF1B48C07838B1BD
:10050000A02009F052FBC020BDE8104009F04DBB0F
:10051000A12009F04AFBC820F6E708F0A9BF2DE9A1
:10052000F041124C104F002606F1B000C0B209F0A5
:100530003CFB022009F039FB102009F036FB0025B6
:100540007878002814F8010B01D0C043C0B209F03C
:1005500042FB6D1CEDB2802DF2D3761CF6B2082E54
:10056000E2D3BDE8F0810000640800203C020020D6
:10057000F0B50C460546012189B0084604F014F890
:100580000121052004F007F80121674803F0A6FEC9
:100590000121664803F0A2FE4FF40046ADF81C604E
:1005A00018218DF81F100320614F8DF81E0007A938
:1005B000384603F008FE3146384603F070FEADF8C9
:1005C0001450ADF810400024F503ADF81640ADF816
:1005D000124004A9284604F0B1FA7021ADF80010C9
:1005E0000120ADF802001920ADF80600ADF8084072
:1005F0006946284604F0DBFA0121284604F050FD44
:100600000021284604F042FD09B0F0BD40F29F51A0
:100610003220ADE710B541F28831CC06204604F017
:1006200036FF0021204604F031FD0021204604F071
:1006300037FDE1133E4803F032FE3E480021418081
:10064000017010BD70B53B4D14460E462A780499D2
:1006500093424DD3F6B12B70A960688007F04EFB32
:1006600041F288316860CD06012E16D03248012C47
:1006700021D0022C21D0032C21D002224CF2503068
:10068000B0FBF6F4EAB1012A2CD0022A2CD0032ABE
:100690001AD12BE0BDE87040BCE7284604F0F7FE15
:1006A0000021284604F0F2FCBDE870404FF4004100
:1006B0001F4803F0F4BD027AE0E7427ADEE7827A6F
:1006C000DCE7284604F0E3FE2146284604F0DDFE80
:1006D0000021284604F0D7FE2846BDE870400121DD
:1006E00004F0D4BCE108ECE7A108EAE76108E8E718
:1006F00070BD10484088002800D00120704710B518
:100700000C4C608800280ED007F0F8FA6168401A97
:100710006188884207D3FFF77DFFA068002802D0D8
:10072000BDE81040004710BD000430000001180073
:10073000000801401800002064080020F8B50121DD
:10074000082003F028FF4FF48070ADF80000032468
:10075000B04E8DF8024014258DF80350694630469E
:1007600003F031FD7015ADF800008DF802408DF8F2
:1007700003506946304603F026FDF8BD70B5A54824
:100780004FF400741030046081150160032003F001
:100790006EFBA04E083630689E4D14352C60032049
:1007A00003F065FB3068800501D5002070BD2C602A
:1007B000032003F05CFB012070BD70B595484FF439
:1007C000007414300460032003F051FB914D60105D
:1007D00010352860032003F04AFB2C60BDE8704010
:1007E000032003F044BB70B58A4C4FF48075143479
:1007F0002560032003F03BFB60152060032003F01D
:1008000036FB201F0560032003F031FB2560BDE8A7
:100810007040032003F02BBB70B57E4E4FF4807404
:1008200014363460032003F022FB6000351F28607B
:10083000032003F01CFB2C60032003F018FB346042
:10084000BDE87040032003F012BB2DE9F041714E6A
:10085000002414364FF480753560032003F007FB45
:100860006800371F3860032003F001FB3D60032060
:1008700003F0FDFA6748083008E0641CE4B2FA2C83
:1008800004D9FFF79AFF0020BDE8F08101688905CF
:10089000F3D435600120F7E72DE9F0415D4E0024E7
:1008A00014364FF480753560032003F0E0FA6800D9
:1008B000371F3860032003F0DAFA3D60032003F0AD
:1008C000D6FA5448083007E0641CE4B2FA2C03D985
:1008D000FFF773FF0120D7E701688905F4D435607D
:1008E0000020D1E72DE9F0474A4F08241437054688
:1008F0004FF400786601A7F1040913E0032003F028
:10090000B6FA2806404602D5C9F8000000E0386073
:100910006806050E032003F0AAFAC9F80060032058
:1009200003F0A5FA641EE4B23E60E7D2BDE8F087AA
:100930002DE9F047082537480024A901103001604F
:10094000DFF8D0908615071D804609F1080910E0F0
:100950006006040E3E60032003F089FAC8F80060C8
:10096000032003F084FAD9F80000800501D544F093
:1009700001046D1EEDB2EBD23E602046D6E770B5A5
:1009800014460D460646FFF7F9FE002815D03046FE
:10099000FFF7A8FFFFF759FF80B12846FFF7A2FF36
:1009A000FFF753FF2046FFF79DFFFFF74EFFFFF7CE
:1009B00004FF052003F072FA012070BDFFF7FDFE71
:1009C000002070BD70B50D460446FFF7D7FE002825
:1009D0001AD02046FFF786FFFFF737FFA8B1284659
:1009E000FFF780FFFFF731FFFFF7C8FE641CE0B29E
:1009F000FFF778FFFFF729FFFFF79AFF0446FFF79D
:100A00000BFFFFF7DAFE204670BDFFF7D6FE002091
:100A100070BD0000000C014070B586B001214FF49C
:100A2000017003F0B8FD4FF4004003F048FD0126CB
:100A3000ADF8146000248DF8174005A92E4803F086
:100A4000C2FB2E4D284604F059FD4FF46020CDE93D
:100A500002048DF8044000948DF805408DF8106074
:100A60006946284604F066FD0121284604F08AFD07
:100A7000284604F0A4FD284604F0A6FD0028FAD17B
:100A8000284604F0A8FD284604F0AAFD0028FAD163
:100A90000121284604F0ABFD06B070BD10B5174C1F
:100AA000014607230122204604F0C4FD012120460F
:100AB00004F09DFD0221204604F090FE0028F9D0AC
:100AC0002046BDE8104004F0F9BD2DE9F0410025B5
:100AD0000E4607462C4608E03846FFF7DFFF054480
:100AE000012003F0C4F9641CE4B2B442F4D3B5FBB2
:100AF000F6F080B2BDE8F08100080140002401401A
:100B000000F00F01000900EB800001EB4000C0B2D3
:100B100070470A21B0FBF1F2B0FBF1F301FB1300C7
:100B200000EB0210C0B2704770B50D460446FFF7E7
:100B300025FED020FFF7D6FEFFF787FE2046FFF701
:100B4000D1FEFFF782FE2846FFF7CCFEFFF77DFEC1
:100B5000BDE87040FFF731BE10B50446FFF70EFE4A
:100B6000D020FFF7BFFEFFF770FE2046FFF7BAFE6A
:100B7000FFF76BFEFFF702FED120FFF7B3FEFFF792
:100B800064FEFFF7D5FE0446FFF717FE204610BDB2
:100B900010B5FFF7D3FD1F210E20FFF7C5FF022080
:100BA00003F07CF900210F20FFF7BEFF022003F0C5
:100BB00075F920210E20FFF7B7FFBDE81040022095
:100BC00003F06CB910B5484CA078FFF7A2FFC1B292
:100BD0000220FFF7A9FF6078FFF79BFFC1B2012059
:100BE000FFF7A2FF2078FFF794FFC1B2BDE81040E5
:100BF000002099E710B53C4CE079FFF78AFFC1B2BD
:100C00000620FFF791FFA079FFF783FFC1B205200F
:100C1000FFF78AFF6079FFF77CFFC1B20420FFF77E
:100C200083FF2079FFF775FFC1B2BDE810400320B4
:100C30007AE72D480B214171052101710221817153
:100C40001621C171704770B50620FFF785FF274C4C
:100C5000E070FFF755FF244DE8710520FFF77CFF9A
:100C60002071FFF74DFFA8710420FFF775FF607139
:100C7000FFF746FF68710220FFF76EFF2070FFF755
:100C80003FFFA8700120FFF767FF6070FFF738FF94
:100C900068700020FFF760FFA070FFF731FF287039
:100CA0000320FFF759FFA071FFF72AFF28711120D9
:100CB000FFF752FFE0711220FFF74EFF800900EBB3
:100CC000C00101EB0010207209F02DFE084909F067
:100CD00038FC0546E07909F026FE294609F0A7FB15
:100CE0000449086070BD7047B60100203C06002032
:100CF0000000C8422400002010B50446FFF73EFD66
:100D0000EC20FFF7EFFDFFF7A0FD2046FFF7EAFD1F
:100D1000FFF79BFDFFF732FDED20FFF7E3FDFFF747
:100D200094FDFFF705FE0446FFF747FD204610BD82
:100D300070B58820FFF7E0FF04468920FFF7DCFF4D
:100D400044EA0020FE4C20808A20FFF7D5FF0546AC
:100D50008B20FFF7D1FF45EA002060808C20FFF751
:100D6000CBFF05468D20FFF7C7FF45EA0020A08096
:100D70008E20FFF7C1FF05468F20FFF7BDFF45EA34
:100D80000020E0809020FFF7B7FF05469120FFF795
:100D9000B3FF45EA002020819220FFF7ADFF054612
:100DA0009320FFF7A9FF45EA002060819420FFF718
:100DB000A3FF05469520FFF79FFF45EA0020A0818D
:100DC0009620FFF799FF05469720FFF795FF45EA24
:100DD0000020E0819820FFF78FFF05469920FFF75C
:100DE0008BFF45EA002020829A20FFF785FF054609
:100DF0009B20FFF781FF45EA002060829C20FFF7DF
:100E00007BFF05469D20FFF777FF45EA0020A08283
:100E10009E20FFF771FF05469F20FFF76DFF45EA13
:100E20000020E082A120FFF767FF2076E120FFF796
:100E300063FF0546E220FFF75FFF45EA002060837D
:100E4000E320FFF759FF2077E420FFF755FF054621
:100E5000E520FFF751FF65F31F10E083E620FFF761
:100E60004BFF05015E20FFF747FF45EA1010208485
:100E7000E720FFF741FF84F82200BDE87040C8205A
:100E800003F00CB870B50D460446FFF777FCEC2074
:100E9000FFF728FDFFF7D9FC2046FFF723FDFFF7FA
:100EA000D4FC2846FFF71EFDFFF7CFFCBDE87040DD
:100EB000FFF783BC10B5B621E020FFF7E3FF142055
:100EC00002F0ECFFD020FFF717FF9D4910390870A2
:100ED0000421F220FFF7D6FFFF21F420FFF7D2FF15
:100EE0000421F520FFF7CEFFBDE8104020E710B544
:100EF000FA20FFF701FF0403FB20FFF7FDFE44EAA1
:100F00000014FC20FFF7F8FE8D4A44EA1010C310CD
:100F10001188B2F90240A3EB4103C1EB201040431A
:100F2000B2F9041063430013DB12484303EBA03013
:100F3000506200EB80008030001209F0F9FC0022C2
:100F4000804B09F061FC09F0B9FD7D4910398860DA
:100F500010BD2DE9F04395B08846074650216846FC
:100F600009F023FA002500982E462C46E94610F099
:100F7000FF4F25D01399386809F0ABFA20F00040F4
:100F8000714909F0B7FD01D2386800904F4657F813
:100F9000240009F050FD2A46334609F01CFB641C6E
:100FA000E4B205460E46142CF1D30022674B09F03B
:100FB0002BFC09F083FDC8F8000015B0BDE8F083F4
:100FC000386800903968C8F80010F6E738B5F7209F
:100FD000FFF792FE0403F820FFF78EFE44EA0014A8
:100FE000F920FFF789FE564944EA1014584A486A26
:100FF000B1F9105002EB600082105243D3126B43E0
:10100000B1F90E505213454303EB45038D899B10F4
:1010100003EB0543B1F90A506A43D510B1F9082032
:10102000424305EB62008014CA8800F50040424349
:10103000D21330D0C4F58010A0EB233040F63543F6
:101040005843B0F1004F03D24000B0FBF2F002E091
:10105000B0FBF2F04000C2085243B1F91630520B17
:101060005A43B1F91440830812136343B1F91210C3
:1010700002EB6332114400EB211009F06AFC0022FC
:10108000304B09F0C1FB09F019FD2D4900900C39D6
:101090006846FFF75EFF38BD2DE9F05FFE20FFF7E1
:1010A0002BFE0446FD20FFF727FE44EA0029244CCE
:1010B000606A09F03DFC0022264B09F02DFB054635
:1010C0000E46207F09F045FC6FF0190A524609F0E0
:1010D0000AFC2A46334609F025FBDFF87CB00022E3
:1010E0005B4609F078FA0746884694F8220009F032
:1010F00030FC524609F0F7FB2A46334609F012FB52
:101100003A46434609F00EFB00225B4609F063FABB
:1011100007468846B4F91A0009F00AFC6FF00F027E
:1011200009F0E1FB3A46434609F0FCFA07468846D7
:10113000B4F9200009F0FCFB6FF00D020EE0000096
:101140005806002000005940CDCCCC3D0000344072
:101150000006FFFF00C0F2400000F03F09F0C3FBB3
:101160002A46334609F0DEFA05460E46B4F91E005B
:1011700009F0DEFB062209F0B6FB2A46334609F0E9
:101180002AFA05460E46484609F0D2FB2A4633465F
:1011900009F0C2FA3A46434609F0C4FA05460E463B
:1011A000207E09F0D6FB2A46334609F0BBFA6FF0E1
:1011B000120209F098FB00225B4609F0B0FA2A46B9
:1011C000334609F0AFFA04460D460022574B09F0AA
:1011D0005DFC02D20024554D08E000221346204653
:1011E000294609F03BFC01D2002425462046294629
:1011F00009F064FC4E494F4CC8604968606809F0CA
:1012000068F94D4909F06BF94C4909F09AF909F070
:10121000ADFBA060BDE8F09F7CB500221023114615
:1012200047A005F0B1FA424D686809F004FC024697
:101230000B4645A101A809F033FE102332220021FC
:1012400001A805F0A1FA10236422002140A005F0B6
:101250009BFA00231A4619463EA005F095FA354C34
:10126000606809F0E8FB02460B4637A1684609F0C2
:1012700017FE002332221946684605F085FA00233E
:101280006422194635A005F07FFA6968606809F0A4
:1012900020F9294E314609F022F909F080FB20801F
:1012A0000022202311462EA005F06EFA22882EA1DE
:1012B000684609F0F5FD20231E220021684605F04E
:1012C00063FA20236422002128A005F05DFA0022A1
:1012D00027A1684609F0E4FD00223023114625A02D
:1012E00005F052FA6968606809F0F3F8314609F0D0
:1012F000F6F8124909F025F909F038FB0246A0601A
:101300001BA1684609F0CCFD30232D220021684640
:1013100005F03AFA30235522002118A005F034FADE
:10132000002213A1684609F0BBFD7CBD00005940B6
:1013300048060020280000200000C842000010419C
:101340004E6F775F503A0000252E31660000000096
:10135000685061005374645F503A00006870610027
:101360006469663A0000000025376400506100009F
:1013700025640000416C743A000000004D657465FE
:101380007200000030B57F280FD83F290DD801F03A
:1013900007040123A3409E4DC90800EBC110295C3E
:1013A0000AB1194300E09943295430BD2DE9F04FAB
:1013B0001746DDF824B00D4604464FF0000A7F289A
:1013C00040D83F2D3ED87F2F3CD83F2B3AD8381BF2
:1013D00000D540424FFA80FC581B00D540424FFADE
:1013E00080F8E04509DD6046C44625461F464FF0BB
:1013F000010A4FFA80F80C461346BC4205D9204634
:101400003C46074628461D4603464FEA6C069D4269
:1014100001D2012001E04FF0FF30814610E0BAF127
:10142000000F5A4610D021462846FFF7ABFFB6EB17
:10143000080603D505EB0900C5B26644641CE4B296
:10144000BC42ECD9BDE8F08F29462046EDE710B547
:1014500006F054FC6F498A68821A322A00D38860E9
:1014600010BD10B501216C4804F01FFE6B4900202F
:10147000087068490870012010BD66498878401ED0
:1014800010F0FF00887004D1012088704878401C5B
:101490004870002070475F494878401E10F0FF00F8
:1014A000487004D18878401C887001204870002062
:1014B00070472DE9F843574F0D464FF48074B988B3
:1014C0000023491C89B2F980A14200D1FB80544A13
:1014D000FE88A1429055B98000D1BB800026BC880F
:1014E0004FF07F0C904614E006FB05F0C0F17F0042
:1014F00018F80410C0B20122FFF744FFB878211A8F
:101500008CB2FF2C03D9C0F58070204484B2761CC5
:10151000B6B2BCFBF5F0B042E6D2BC880021E14691
:1015200025E0BA78A01A80B2FF2803D9C2F58072EC
:10153000104480B2012200924E1C18F8003006FBC5
:1015400005F0C0F17F00C2B2694318F804C0C1F1D0
:101550007F00C0B26146FFF729FFB878211A8CB22C
:10156000FF2C03D9C0F58070204484B2B1B2B9FB1E
:10157000F5F08842D5D2BDE8F8833EB5254CE06849
:1015800009F059FA02460B4626A1684609F088FC84
:1015900000231A461946684605F0F6F8206909F056
:1015A0004AFA02460B4622A1684609F079FC00225D
:1015B00008231146684605F0E7F8606909F03BFA30
:1015C00002460B461DA1684609F06AFC0022102362
:1015D0001146684605F0D8F8206909F0E0F9C0B274
:1015E0006178FFF766FF01203EBD10B5164804F094
:1015F0002CFF164A1649174804F0EBFD002006F0B0
:10160000C9FA0649012008700249087010BD00009F
:101610003C020020340000203F640008F801002054
:10162000800600207069743A252E326600000000A2
:10163000726F6C3A252E3266000000007961773AAD
:10164000252E3266000000007B1500089714000864
:10165000631400087B14000870B50C460546FFF7BC
:101660008DF8D220FFF73EF9FFF716F950B928465A
:10167000FFF738F9FFF710F92046FFF733F9FFF7C6
:101680000BF918B1FFF799F8012070BDFFF795F835
:10169000002070BDBC2801D3012110E0622801D3D5
:1016A00002210CE02A2801D3032108E0142801D3E9
:1016B000042104E00A2801D3052100E006211A20B4
:1016C000CAE710B504464FF47A70844201D9044643
:1016D00002E0042C00D20424B0FBF4F0401EC1B29E
:1016E0001920FFF7B9FF6008BDE81040D2E710B538
:1016F0000446FFF743F8D220FFF7F4F8FFF7CCF8E1
:101700002046FFF7EFF8FFF7C7F8FFF737F8D320C9
:10171000FFF7E8F8FFF7C0F8FFF70AF90446FFF70C
:101720007BF8FFF74AF8204610BDC006010E1C20CA
:1017300092E7C006010E1B208EE710B5FEF7FEFFF4
:1017400080216B20FFF788FF642002F0A7FB0021B7
:101750006B20FFF781FF0320FFF7EBFF0020FFF76F
:10176000E4FF3220FFF7ADFF00213820FFF774FFC0
:1017700000216A20FFF770FF00212320FFF76CFF94
:1017800080213720FFF768FF7520FFF7B0FF692839
:1017900001D0012010BD01216B20FFF75DFF00216A
:1017A0006C20FFF759FF3220FFF78BFF002010BDA0
:1017B0002DE9F0411C4615460F460646FEF7DEFFB2
:1017C0007006000EFFF78EF8FFF766F820B1FEF7FF
:1017D000F4FF0120BDE8F0813846FFF783F8FFF7FA
:1017E0005BF8FEF7CBFF012000EB4600C0B2FFF72D
:1017F00079F8FFF751F809E0012D0DD0FFF798F8BF
:101800002070FEF7F0FF6D1EEDB2641C002DF3D1C9
:10181000FEF7D3FF0020DDE7FFF78AF82070FEF720
:10182000FBFFF0E708B56B46022241216920FFF774
:10183000BFFFBDF8000040BA00B209F079F80022FD
:10184000544B08F0E1FF544A544B08F0C4FE09F031
:1018500035F9534908F043FE09F088F800B208BD95
:101860007CB514460D4606466B4606224321692088
:10187000FFF79EFF00280BD1BDF8001049BA318058
:10188000BDF8021049BA2980BDF8041049BA218078
:101890007CBD7CB514460D4606466B4606223B21B0
:1018A0006920FFF785FF00280BD1BDF8001049BA69
:1018B0003180BDF8021049BA2980BDF8041049BA38
:1018C00021807CBD2DE9F0411D4616460C46074699
:1018D000FEF754FF7806000EFFF704F8FEF7DCFF72
:1018E00060B92046FEF7FEFFFEF7D6FF00240BE0AE
:1018F000285DFEF7F7FFFEF7CFFF18B1FEF75DFF9B
:10190000012067E7641CE4B2B442F1D3FEF755FF4F
:1019100000205FE73EB5044602AA01A9684601F02F
:101920008AFB2046009908F0D7FD1E49884201D95C
:1019300002203EBD1C49884201DD01203EBD002041
:101940003EBD3EB502AA01A96846FFF789FFBDF971
:10195000001040F6B83401220020144BA14201DDF2
:101960001A7014E040F6B834E14202DA5A70187086
:101970000EE019785A7831EA020402D0187001207A
:101980003EBD8A4302D0587002203EBD1870587088
:1019900000203EBD00407540A4703D0AD743424040
:1019A0000000C8420000A0C10000A0414C0000207F
:1019B000F8B5FE4C0023224694F82460D2E90012C8
:1019C0005D1E56B190B102200DE01078C97B6B46C8
:1019D0000122FFF777FF60B90DE0A67A4EB128B17A
:1019E000607C58B901208DF80000EEE78DF80030DA
:1019F000EBE72846F8BD9DF8000060740020F8BDB4
:101A000038B50024E94D18E02868C27AA24212D005
:101A1000407DA0420FD008786B4601222146FFF797
:101A2000C7FE10B14FF0FF3038BD9DF800202146B1
:101A3000DFA009F025FA641CE4B269680879A042C5
:101A4000E2D8002038BDD94A30B40B4611684FF0B7
:101A5000FF34CD7A854206D0497D814203D051685A
:101A60000A79824202D8204630BC70470C78014681
:101A7000204630BC0122FFF79BBE38B5CB4D044653
:101A800095F82300A04201D1002038BD0CB13020D0
:101A900000E000208DF80000A87C28B19DF800002F
:101AA00040F002008DF8000095F8220028B19DF862
:101AB000000040F080008DF8000028686B4601228D
:101AC000017D68680078FFF7FDFE10B14FF0FF3030
:101AD00038BD85F82340D7E7F8B5044610F0700FFD
:101AE0004FF0000601D0012004E014B18DF8006031
:101AF00002E040208DF80000AC4D6B4601222868C2
:101B0000817C68680078FFF7DDFE4FF0FF3760BB2F
:101B10009DF8000020F0400028738DF800606006FA
:101B200002D404208DF80000A00605D49DF8000022
:101B300040F002008DF80000E00605D49DF800009A
:101B400040F001008DF80000200705D49DF800004A
:101B500040F038008DF8000028686B460122C17CF7
:101B600068680078FFF7AEFE10B1AE723846F8BD77
:101B700024B1082C02D00020FFF77FFFAC722E7535
:101B8000322002F08BF90020F8BDF8B5874D0446ED
:101B9000A87CA04201D10020F8BD84484FF0FF3658
:101BA0006B46D0E900104FF001020979007834B398
:101BB000FFF7FEFDD8BB9DF800006B4620F020002B
:101BC0008DF8000028680122017968680078FFF725
:101BD00079FE60BB032002F061F902208DF800005D
:101BE00095F8220070B382202AE028686B46012213
:101BF000017D68680078FFF765FEC0B92DE0FFF74A
:101C0000D7FDA0B9A87AC0079DF8000002D040F027
:101C1000200001E020F020008DF8000028686B46CD
:101C20000122017968680078FFF74CFE08B1304660
:101C3000F8BD032002F032F995F8220000B18020AF
:101C40008DF8000095F823000028CED09DF8000004
:101C500040F030008DF80000C7E7AC749BE7F8B5A2
:101C6000524D4FF0FF36A87A00287CD000248DF822
:101C7000004028686B460122C17B68680078FFF746
:101C800021FE00286FD128686B46012241796868DF
:101C90000078FFF717FE002865D128686B460122FF
:101CA000017968680078FFF70DFE00285BD195F890
:101CB0002400E0B30C208DF8000028686B46012258
:101CC000017968680078FFF7FDFD00287DD132209A
:101CD00002F0E4F8C0208DF80000A87AC00702D016
:101CE000E0208DF8000028686B46012201796868C1
:101CF0000078FFF7E7FD002867D1687C18B1022063
:101D00008DF8000001E08DF8004028686B46012244
:101D1000C17B68680078FFF7D5FD20BB8DF80040D7
:101D200028686B4601224179686800783DE0FFE74A
:101D300004208DF8000028686B460122017968684C
:101D40000078FFF7BFFD70B9A87C88B9A87AC007F2
:101D50000ED060208DF8000028686B4601220179C2
:101D60006868007800E02BE0FFF7ACFD40BB01E0C5
:101D70004020EFE7322002F091F8687C18B1012092
:101D80008DF8000001E08DF8004028686B460122C4
:101D9000C17B68680078FFF795FD88B92868034B18
:101DA000417968681033012200780AE05000002071
:101DB000252335783A20252335780D0A00000000C8
:101DC00003E0FFF77FFD002800D03046F8BD2DE985
:101DD000F041002620F00104FE4D95F8240010B1DA
:101DE0000020BDE8F081A87A4FF0FF3838B12040DC
:101DF0002F7C2874A04200D0464624B901E040461A
:101E0000EFE7287D40B10120FFF7D2FD3CB1FFF79D
:101E100026FF20B12F74F2E70020FFF7C9FD3046FE
:101E2000DFE738B5EB4C4FF0FF35A17A31B3BC2872
:101E300001D3012010E0622801D302200CE02A28FF
:101E400001D3032008E0142801D3042004E00A2869
:101E500001D3052000E006208DF80000E07A9DF80F
:101E60000010884201D1002038BD20686B46012255
:101E7000817860680078FFF725FD08B1284638BDF5
:101E80009DF80000E072EEE72DE9F84304464FF0BC
:101E9000FF39282844D80727CE4D00267CB10120E1
:101EA000FFF7EBFD20208DF800004FF00108012C1A
:101EB00017D0052C18D88DF8018005201FE00020D0
:101EC000FFF7DBFD8DF800608DF8017028686B4628
:101ED0000222817C68680078FFF7F4FC00BB2E7555
:101EE00029E08DF80160E8E7142C04D802208DF871
:101EF00001000A2003E003208DF801001420FFF701
:101F000090FF9DF801006B4607EB80108DF80100F3
:101F100028680222817C68680078FFF7D3FC10B142
:101F20004846BDE8F8830820A8722E7385F814800F
:101F30000020FFF74CFF0020F3E7F8B5A54D04465D
:101F40004FF0FF37A87A28B395F8240010BB287DFE
:101F500048B12CB1282C03D8E0B2FFF795FF24E05C
:101F60000020FFF791FF4FF47A76042C01D204246D
:101F700002E0B44200D93446B6FBF4F0401E8DF8BE
:101F8000000028686B460122417868680078FFF7F6
:101F900099FC08B13846F8BD9DF80000401CB6FB1E
:101FA000F0F0E8814008FFF73CFF0020F8BD38B5AD
:101FB000884C4FF0FF35A17A19B3022806D00428C7
:101FC00006D008280ED010281BD10DE0002000E01C
:101FD00008208DF80000607A9DF80010B0EBD10F5A
:101FE00004D005E01020F4E71820F2E7002038BD07
:101FF00020686B460122C17960680078FFF762FCB7
:1020000008B1284638BD9DF80000C0086072EDE7B1
:1020100038B5704C4FF0FF35A17A31B3FA2809D0AA
:10202000B0F5FA7F08D0B0F57A7F0FD0B0F5FA6F2F
:102030001BD10DE0002000E008208DF80000207A80
:102040009DF80010B0EBD10F04D005E01020F4E7AC
:102050001820F2E7002038BD20686B460122817904
:1020600060680078FFF72EFC08B1284638BD9DF85F
:102070000000C0082072EDE72DE9FC41554C80209E
:102080008DF8000020686B460122817C6068007832
:10209000FFF718FC4FF0FF37002832D1642001F021
:1020A000FDFE00258DF8005020686B460122817CE2
:1020B00060680078FFF706FC002870D120686B4646
:1020C0000622817D60680078FFF772FB002866D1E8
:1020D0009DF805009DF80310C007400F01F00101B5
:1020E00040EA41019DF801004FF0010600F00100B7
:1020F000014309D0012905D0022915D036A008F0E6
:10210000BFFE4CE0E67410E020686B460122C17807
:1021100060680078FFF74CFB40BB9DF8000010F0B2
:102120000F0020D0042822D0E574FF2004F80A0F05
:102130004FF6FF7104F8020C04F8010C6070A180E6
:10214000A0712072A67026766576E572A572E560AC
:1021500025616561A576E576A5834FF4FA60FFF702
:1021600057FF18B907E0264808F08AFE17E025A0B7
:1021700008F086FEC6E70220FFF719FF78B92A208B
:10218000FFF74FFE58B93220FFF7D7FE38B90020CD
:10219000FFF71DFE18B90020FFF7F7FC10B1384615
:1021A000BDE8FC810020FFF797FC0020F8E77047AE
:1021B0007CB5044607484FF0FF35817A11F0700F67
:1021C00031D0016840686B46097B00780622FFF732
:1021D000EFFA27E050000020556E737570706F7233
:1021E00074656420736F6674776172652070726FB6
:1021F00064756374207265762025642E0A000000E1
:10220000D0FE000848616C662073656E736974695E
:1022100076697479207061727420666F756E642EB1
:102220000A00000008B128467CBDBDF8000040BA95
:102230002080BDF8020040BA6080BDF8040040BABA
:10224000A08000207CBD7CB50446FE484FF0FF35E1
:10225000817A090708D5016840686B46497B007898
:102260000622FFF7A5FA08B128467CBDBDF800009C
:1022700040BA2080BDF8020040BA6080BDF804007A
:1022800040BAA08000207CBDF8B5EE4C07464FF068
:10229000FF35A07A40B120686B460222817B6068DE
:1022A0000078FFF785FA08B12846F8BDBDF80000B0
:1022B000646840BA05B2E08808F035FB0646B4F918
:1022C000080008F027FB0446284608F023FB2146B7
:1022D00008F0FFF8314608F034F9DB4908F0A7F8B8
:1022E000102108F06CF908F041FB38600020F8BDBF
:1022F0002DE9FC4104004FF0FF3862D0206820B97E
:10230000606810B9A06800285CD0CE4F03226B46ED
:10231000786811460078FFF74BFAE0BB9DF8001093
:10232000082000EB111101F00F029DF801109DF83B
:10233000023000EB111100EB1310236840325B00F8
:1023400093FBF2F216B2626801F00F0152004031C5
:1023500092FBF1F10DB2A16800F00F00490040308E
:1023600091FBF0F004B2786806226B4600781146C3
:10237000FFF71EFA78B9BDF80000BDF8021040BAA8
:10238000BDF80420304449BA52BA030A2944224411
:102390008DF8003000E014E08DF80100080A8DF897
:1023A0000200100A8DF804008DF803108DF8052046
:1023B000786806226B4600781146FFF783FA0028FA
:1023C00000D04046ECE69F49097A39B1012907D08F
:1023D00002290AD003290BD0002103E0FA2101E0F1
:1023E0004FF4FA710180002070474FF47A71F9E7D9
:1023F0004FF4FA61F6E7934A517A41B1012908D0C6
:1024000002290FD003290FD04FF0FF30704702216F
:1024100000E004210170D17C11B101784900017004
:10242000002070470821F5E71021F3E78549C97AB4
:10243000072913D2DFE801F01204060A0C0E10007F
:10244000BC2100E062210180002070472A21FAE7C8
:102450001421F8E70A21F6E70521F4E70021F2E765
:10246000784991F8242012B14FF0FF307047C989A4
:1024700001800020704700210180481E70474FF006
:10248000FF3070476F49097A41B1012908D002290C
:102490000AD003290AD04FF0FF3070476B4900E0A3
:1024A0006B490160002070476A49FAE76A49F8E71A
:1024B000644A517A41B1012909D0022911D0032976
:1024C00012D04FF0FF3070474FF4804101E041F6E9
:1024D0009C710180D17C11B10188490801800020E4
:1024E00070474FF48051F4E74FF40061F1E755492C
:1024F000097C0170002070475249897A01B101219D
:1025000001700020704738B505464E484FF0FF3443
:10251000817A41B1016840686B46097C00780222EB
:10252000FFF746F908B1204638BDBDF8000040BAB3
:102530002880002038BD2DE9FE4F8846414981465C
:10254000002491F824001E4625464FF0FF3BD0BBE7
:1025500000203070887AB0B3087CA0B3420600D562
:102560000224820600D5A41CC20600D5A41C0007C4
:1025700000D5A41D8A460968DAF804006B46897AFA
:1025800000780222FFF714F9E8B9BDF8000047BA55
:10259000A74263D3DAF804004188B7EB510F13D98F
:1025A000DAF8001000786B46497C0122FFF700F949
:1025B00048B99DF80000C00606D5FFF750FB6FF044
:1025C0000100BDE8FE8F0AE0DAF80010DAF8040036
:1025D0006B46C97A00782246FFF7EAF808B15846F8
:1025E000EFE7B7FBF4F00C99401E08700020307044
:1025F000A4B39AF8101050460A07694613D5BDF8DF
:102600000020062552BAA8F80020BDF8022052BAD0
:10261000A8F80220BDF8042052BAA8F804203278A5
:1026200042F008023270A5421AD0027C520617D539
:102630004A19128852BAA9F80020327842F04002B2
:1026400032700CE05000002000000C4200000343F8
:102650000000834233330342333383411EE0AD1C19
:10266000A5420CD0027C920609D54A19AD1C1288ED
:1026700052BAA9F80220327842F020023270A54204
:102680000CD09AF81000C00608D54819008840BA46
:10269000A9F80400307840F010003070002090E776
:1026A0002DE9F843FA4E0546174696F82400894668
:1026B0004FF0FF3888B3B07A78B330686B460222A7
:1026C000817A70680078FFF773F830BBBDF80000BE
:1026D00044BAAC4202D2002038701EE070684188D3
:1026E000B4EB510F10D9316800786B46497C012258
:1026F000FFF75EF888B99DF80000C00604D5FFF723
:10270000AEFA6FF001000CE43068EAB24B46C17AD1
:1027100070680078FFF74CF808B140460CE4B4FB51
:10272000F5F0401E3870002006E4D94981F82200F7
:10273000002070472DE9FE4F05460120D44E8DF84C
:1027400000004FF000088DF8018030680C461746F5
:10275000817C70686B4602220078FFF7B3F84FF077
:10276000FF3A00287AD1C82001F098FB8DF800804C
:1027700030686B460122C17B70680078FFF7A2F8D1
:102780000028EFD130686B460122417970680078EB
:10279000FFF798F80028E5D130686B460122817C6C
:1027A00070680078FFF78EF80028DBD130686B4640
:1027B0000122C17D70680078FFF784F80028D1D12C
:1027C00030686B460122017970680078FFF77AF86B
:1027D0000028C7D14FF00C098DF8009030686B4687
:1027E0000122017970680078FFF76CF8002835D174
:1027F0000F2001F053FBB06A6B460122407A8DF83E
:1028000000003068817870680078FFF75BF8002876
:1028100024D1B06A6B460122007A8DF8000030683E
:10282000417870680078FFF74DF8002873D1B06ADE
:10283000807A0FB140F0E0008DF8000030686B4600
:102840000122817970680078FFF73CF8002862D196
:102850002FB1B06AC07A40F0E00001E04AE01820F1
:102860008DF8000030686B460122C17970680078ED
:10287000FFF728F8F0BB17B1C82001F00FFB40208C
:102880008DF8000030686B4601220179706800788D
:10289000FFF718F870BB78208DF8000030686B46A1
:1028A0000122417970680078FFF70CF810BB3220E4
:1028B00001F0F4FA8DF80080306847466B464179A4
:1028C000706801220078FEF7FDFF98B931687068E2
:1028D000B046897A00786B460222FEF769FF48B954
:1028E000BDF80000AF6040BAB0FBF9F06F60C6B24F
:1028F0002F6000E00FE0A76067602760002738E0E6
:10290000D8F80010D8F804006B46C97A00780C2279
:10291000FEF74EFF08B1504653E6BDF800002368AD
:1029200040BA02B2BDF802001A4440BA01B2BDF882
:1029300004002260626840BA11446160A16800B27C
:102940000844A060BDF806002B6840BA02B2BDF88A
:1029500008001A4440BA01B2BDF80A002A606A6849
:1029600040BA11446960A96800B208447F1CFFB2F4
:10297000A860B742C4D328688322C117090441EA7A
:1029800010410004002307F0B3FC3246002307F097
:10299000AFFC286068688322C117090441EA10412E
:1029A0000004002307F0A4FC3246002307F0A0FC3B
:1029B0006860A8688322C117090441EA1041000435
:1029C000002307F095FC3246002307F091FCA86035
:1029D00020684FF40065C117090441EA1041000462
:1029E0002A46002307F084FC3246002307F080FCCF
:1029F000206060682A46C117090441EA10410004BA
:102A0000002307F075FC3246002307F071FC60607C
:102A1000A0682A46C117090441EA104100040023B6
:102A200007F066FC3246002307F062FCA060002835
:102A300002DDA0F5803001E000F58030A0600020CC
:102A4000BFE538B5124C94F8241081421DD0002502
:102A5000E8B194F82500E8B10020FEF7A9FF0020B6
:102A6000FFF793F8E08CFFF768FA8DF80050606884
:102A70006B46012200782321FEF724FF012084F811
:102A80002400FEF795FFFFF7EAF8002038BD04E0C8
:102A9000500000204FF0FF30F8E70020FEF788FFDD
:102AA000207C8DF8000060686B46012200782321AD
:102AB000FEF708FF84F82450E5E72DE9F047F94ECA
:102AC00082468AB096F824000F4620B10020FFF716
:102AD000B8FF012500E0002507A8FFF774FC06A851
:102AE000FFF789FC09A8FFF7A1FC08A8FFF7B8FCCD
:102AF00096F80A9096F81080002400223946504635
:102B0000FFF718FE10B1641C022CF6DB022C1AD061
:102B10000024012203A96846FFF70CFE10B1641CD3
:102B2000022CF6DB022C0ED003A9384600F04EFB37
:102B3000C7B26946504600F081FB10F0FF0F4FF01E
:102B4000000402D002E0002403E001240FB944F0A5
:102B50000204FF2030727072F0724FF6FF71F18143
:102B6000B072307401203073BDF81C00FFF750FACA
:102B70009DF81800FFF71BFABDF82400FFF751F984
:102B8000BDF82000FFF7D9F94846FEF7A5FF4046FB
:102B9000FFF71DF915B10120FFF753FF0AB02046DA
:102BA000BDE8F087F8B517000D464FF0FF341FD091
:102BB000BC4EB17AE1B1010A8DF80010C0B28DF8B7
:102BC0000100411970684289914211D8316800783A
:102BD0006B46097E0222FEF775FE48B93068EAB2FC
:102BE0003B46417D70680078FEF76CFE002800D0FF
:102BF0002046F8BDF8B517000D464FF0FF341FD042
:102C0000A84EB17AE1B1010A8DF80010C0B28DF87A
:102C10000100411970684289914211D831680078E9
:102C20006B46097E0222FEF74DFE48B93068EAB2D3
:102C30003B46417D70680078FEF7BAFD002800D061
:102C40002046F8BD2DE9FF4FDFF858A2054685B0B4
:102C50009AF82500914688464FF0FF3BC0BBB8F17B
:102C6000000F35D000241FE0281B102800DD1020A5
:102C700086B208EB04073A4631462046FFF792FF3A
:102C800030BB6A4631462046FFF7B4FF00BB3846EA
:102C90003246694607F0A7FB20B16FF0010009B08A
:102CA000BDE8F08FA01984B2AC42DDD34FEA192001
:102CB0008DF810008DF81190DAF80000544604AB3E
:102CC000817EDAF8040002220078FEF7FBFD08B1ED
:102CD0005846E4E7012084F825000898E0840020A5
:102CE000DDE7704991F824100170002070474FF023
:102CF000FF3070474FF0FF3070474FF0FF307047A4
:102D00002DE9F84F674C0F4604F1160115004FF0FE
:102D1000FF3B8A464FF000094FF0010877D0B0F52D
:102D2000FF5F01D9FF2605E0202801D2012601E03E
:102D3000C0F3471607B90127282D6AD8607DF0B97E
:102D400094F8240028B10020FFF77BFE84F820804F
:102D500001E084F820905046FFF735FB51481830C9
:102D6000FFF749FB4F481A30FFF760FB4D481C3016
:102D7000FFF776FBA07AA0774A48217CC177002034
:102D8000FEF716FE0020FFF77FF88DF80090206810
:102D90006B460122817860680078FEF793FD002879
:102DA00037D140208DF8000020686B460122C17B9E
:102DB00060680078FEF786FD50BB8DF800608DF8E6
:102DC000017020686B460222017A60680078FEF785
:102DD00079FDE8B9052001F061F8607A072606EB75
:102DE000C0008DF8000020686B460122C179606840
:102DF0000078FEF767FD58B920208DF80000012DFE
:102E000008D0052D0AD840468DF801800DE01DE060
:102E10001FE04CE048468DF8019006E0142D01D8E3
:102E2000022000E003208DF80100C0B206EB801004
:102E30008DF8010020686B460222817C6068007872
:102E4000FEF740FD28B984F8158027E000200A5CD1
:102E50003AB3FF2020726072E0724FF6FF71E18199
:102E6000A072207484F80C80A07FFEF735FEE08A03
:102E7000FFF7CEF8207EFFF79AF8608BFEF7D1FFC0
:102E8000A08BFFF75AF8E07FFEF7A1FF94F820002F
:102E900010B10120FFF7D5FD84F815900020BDE8A2
:102EA000F88F01E050000020401C0C28CFD358467A
:102EB000F5E710B588B002A905A8FFF7FEFD0328C5
:102EC00002D0012008B010BD6846FFF7DBFA059874
:102ED00007F020FD00990C4607F001FB07F046FDC6
:102EE0000590069807F016FD214607F0F8FA07F05E
:102EF0003DFD0690079807F00DFD214607F0EFFA1B
:102F000007F034FD079005A800F0DFFA01A8FFF7ED
:102F1000CFFABDF80400029941430291039941435D
:102F200003910499414302A8049100F030FB002072
:102F3000C8E790F90010002902DD4FF0000070474B
:102F400002DA4FF00400704790F90110002902DD09
:102F50004FF00100704702DA4FF00500704790F91A
:102F60000200002802DD4FF00200704702DA4FF045
:102F7000060070474FF00700704700B50246FFF7A4
:102F8000D8FF0346D01CFFF7D4FF43EAC003901DCF
:102F9000FFF7CFFF43EA801080B200BD10B5FFF706
:102FA0006BF808B10A2010BD7820FEF795FD10F0EF
:102FB000FF0F01D0012010BD7820FEF708FF10F0B0
:102FC000FF0F01D0022010BD6420FEF7B6FF10F005
:102FD000FF0F01D0032010BD00F0F4F910F0FF0F37
:102FE00001D0042010BDED48FFF7C7FF00F0F2F953
:102FF00010F0FF0F01D0052010BD40F2731000F05B
:103000003CFD10F0FF0F01D0062010BD642000F041
:1030100025FB10F0FF0F01D0072010BDFFF749FF7F
:1030200008B1082010BD0120FFF70BFD10F0FF00D4
:10303000F8D0092010BD2DE9F74F8EB00CA906A8D5
:10304000CDE900010BAB02AA09A907A800F022FEF6
:1030500010B1012011B023E6BDF81800C0057DD5E0
:10306000029807F057FC6FF01D04214607F0A7FAFD
:103070008146039807F04EFC214607F0A0FA8046EF
:10308000049807F047FC214607F099FA0646059890
:1030900007F040FC214607F092FA8246012148469B
:1030A00007F08DFA0746314607F019FA04464FF04B
:1030B0004041404607F013FA0546514607F00FFA23
:1030C000214607F0B4F907F0B6FC08F0A5FE4FF072
:1030D000663B5A46B24B07F025FB07F0EFFC0E9912
:1030E00008600121304607F06AFA3146009007F087
:1030F000F6F904462846414607F0F1F9214607F063
:10310000E8F94FF07E5107F092F907F094FC04467D
:103110000D463846414607F0E2F907465146009809
:1031200007F0DDF9394607F082F907F084FC224602
:103130002B4609F0B9F85A46994B07F0F3FA07F015
:10314000BDFC0F9908605146084607F0C8F90746CC
:103150003146084607F0C3F9054600E034E0414631
:10316000084607F0BCF904464946084607F0B7F997
:10317000214607F05CF9294607F0ABF9394607F01C
:10318000A8F907F058FC04460D465146484607F09A
:10319000A6F907463146404607F0A1F9394607F03F
:1031A00046F9012107F00BFA07F045FC22462B46B1
:1031B00009F07AF85A467A4B07F0B4FA07F07EFC29
:1031C00010990860002045E7022043E72DE9FE4FF3
:1031D00080460F460025684600F091F800246FF005
:1031E0000F0AE946012658F8240057F82410401A1F
:1031F00000D5404207F08EFB514607F0E0F959F840
:10320000241011F0FF4F0BD007F09BF94FF07E51C7
:1032100007F05FF9634920F00040884205DC07E0D1
:10322000614908446149884202D306FA04F0054323
:10323000641C032CD7DB2846BDE8FE8F2DE9F84F30
:103240008246564889462C38002540686B46032242
:1032500000780D21FEF7ACFA08B107201FE69DF8B3
:103260000000002400F01F008DF800009DF8010010
:103270006F4600F01F008DF801009DF802004FF02E
:10328000010800F01F008DF802005AF8241059F8C8
:103290002400081A00D5404207F03CFB6FF00F01F4
:1032A00007F08DF90646385DE0B1414ADFF804B118
:1032B00004E05946104607F012F90246385D401EF8
:1032C00010F0FF003855F4D11146304607F039F9B7
:1032D0004FF07E5107F0FDF8324920F0004088425F
:1032E00005DC07E034483044B0F1D97F02D908FA50
:1032F00004F00543641C032CC7DB2846CFE52DE909
:10330000FC47054625486B462C38042240680D21B1
:103310000078FEF74DFA10B10720BDE8FC879DF854
:1033200000001C2101EAD0029DF80300DFF88C9018
:10333000C0F301131A438DF804209DF80120C0F357
:10334000810301EAD2021A438DF805209DF802207C
:1033500000F0030001EAD20101430024184F8DF868
:103360000610A04601AE305D10B145F8249009E08A
:1033700045F824800CE055F82400394607F0AFF8F2
:1033800045F82400305D401E10F0FF003055F2D1AA
:10339000641CE4B2032CE6D30020BEE77C000020CE
:1033A00066A64C40295C0F3E666666C19A99D900B4
:1033B0000000C84154E3853F0000E0BE7B14AE3EF0
:1033C0001D5A843FC8234FF48062FE4940F6F63010
:1033D000FFF738BC2DE9FF410446FBA002AB0068B3
:1033E0000290FAA000680390F9A00668F9A00568A9
:1033F00004F00300195C8DF80010C4F3C1015A5C9D
:103400008DF80120C4F381129B5C8DF8023003AB70
:10341000185C8DF80400585C8DF80500985C8DF8F8
:1034200006006A46032140F22640FFF7BBFB4FF03F
:10343000FF37E0BB01AA032140F22A40FFF7B2FBAD
:10344000A8BBCDE9006560070BD59DF8000040F0F2
:1034500001008DF800009DF8040040F001008DF897
:103460000400A0060BD59DF8010040F001008DF886
:1034700001009DF8050040F001008DF80500E00511
:103480000BD59DF8020040F001008DF802009DF878
:10349000060040F001008DF806006A4603214FF453
:1034A0008860FFF77FFB10B901AA032100E004E068
:1034B00040F23140FFF776FB18B1384604B0BDE862
:1034C000F081C54804810020F8E7F8B5C2490989B0
:1034D00001F0030250F822404A0700D56442C1F3CC
:1034E000C10250F822308A0600D55B42C1F3811236
:1034F00050F82220C80500D55242B84984FB01404B
:10350000850045EA947083FB014382FB0121950FFE
:1035100045EA8105010E8DF80010010C8DF80110AF
:10352000010A8DF80210A40F8DF8030044EA830409
:103530006A4604214FF47470FFF734FB4FF0FF36F6
:1035400088B9200E8DF80000200C8DF80100200AAB
:103550008DF802008DF803406A4604214FF475701F
:10356000FFF720FB08B13046F8BD280E8DF80000AB
:10357000280C8DF80100280A8DF802008DF8035000
:103580006A4604214FF47670FFF70CFBF8BD2DE975
:10359000FF41054603A8FEF78BFFBDF80C00460C63
:1035A000C7038D48018901F0030055F82020480722
:1035B00000D55242C1F3C10055F82040880600D51D
:1035C0006442C1F3811055F82030C80500D55B4234
:1035D000A2FB0715D01700FB075002FB0600820074
:1035E00042EA9170A4FB0725E11701FB075104FB98
:1035F00006118C0044EA9271A3FB0745DA1702FB1F
:10360000075203FB0622930043EA9472030E8DF8DF
:103610000030030C8DF80130030A8DF802308DF86C
:103620000300080E8DF80400080C8DF80500080A48
:103630008DF80600100E8DF80800100C8DF80900AA
:10364000100A8DF80A008DF807108DF80B206A46D5
:103650000C214FF42570FFF7A5FA2FE730B504468B
:103660005FA185B007C98DE807004FF0FF35C82C72
:1036700016D8C820B0FBF4F1491E080A8DF80C00DA
:103680008DF80D1003AA022140F21620FFF78AFAE6
:1036900030B96A460C2140F6C120FFF783FA10B119
:1036A000284605B030BD4C4884810020F9E74A49DE
:1036B00089890180002070472DE9FC4105464007BB
:1036C0004FF0FF367CD0B1F5C86F79D8084607F0C7
:1036D0002AF9464906F035FF074601A8FEF78BFE9A
:1036E0009DF80400022806D004280DD008282ED00A
:1036F000102865D134E00E21384606F060FF07F04F
:103700004EF984B23A4907E00D21384606F057FFDA
:1037100007F045F9374984B2384606F0E0FE07F075
:103720003EF9210A8DF8001080B28DF80140010A9F
:103730008DF802108DF80300E8076C4620D0224671
:1037400002214FF4EA70FFF72DFAC8BB11E00C21FB
:10375000384606F034FF07F022F984B22649DBE749
:103760000B21384606F02BFF07F019F984B22349E4
:10377000D2E7A21C02214FF49270FFF713FAF8B9B6
:10378000A8070DD56A4602214FF4EC70FFF70AFA3C
:10379000B0B9A21C02214FF49470FFF703FA78B974
:1037A000680731D56A4602214FF4EE70FFF7FAF947
:1037B00030B9A21C02214FF49670FFF7F3F91FE015
:1037C0001FE00000ACCB00084CCD6C000CC92C00F5
:1037D00036567600264666008007002009E3CA02B6
:1037E000FEF2ABC4AAF1DFDFBBAFDFDF000048436E
:1037F000000040460000C045000040450000C044B5
:1038000010B13046BDE8FC810020FBE708B500217F
:103810008DF80010C10702D030218DF8001081070B
:1038200005D59DF8001041F00C018DF800104007FF
:1038300005D59DF8000040F003008DF800006A46B1
:1038400001214FF4A470FFF7ADF908BD08B560B1D0
:10385000042800D90420401E8DF800006A4601218A
:1038600040F24F10FFF79EF908BD0120F3E7052154
:10387000B0FBF1F008B5010A8DF800108DF80100D9
:103880006A4602214FF4EF70FFF78CF908BD05215D
:10389000B0FBF1F008B5010A8DF800108DF80100B9
:1038A0006A4602214FF4ED70FFF77CF908BD4FF432
:1038B0007A7290FBF2F008B54843010E8DF80010C3
:1038C000010C8DF80110010A8DF802108DF803002B
:1038D0006A4604214FF4AE70FFF764F908BD052174
:1038E000B0FBF1F008B5010A8DF800108DF8010069
:1038F0006A4602214FF4AD70FFF754F908BD052167
:10390000B0FBF1F008B5010A8DF800108DF8010048
:103910006A4602214FF4AC70FFF744F908BD38B590
:1039200004004FF0FF3506D06A4604214FF458706A
:10393000FFF760F908B1284638BDBDF800009DF8D2
:10394000021040BA000440EA01209DF80310084329
:103950002060002038BD08B5010E8DF80010010C64
:103960008DF80110010A8DF802108DF803006A46E7
:1039700004214FF45870FFF715F908BD38B504005D
:103980004FF0FF3506D06A4604214FF47170FFF7FF
:1039900031F908B1284638BDBDF800009DF8021085
:1039A00040BA000440EA01219DF80300014301EB05
:1039B000810080002060002038BD1421B0FBF1F0B0
:1039C00008B5010E8DF80010010C8DF80110010AE8
:1039D0008DF802108DF803006A4604214FF47170CF
:1039E000FFF7E0F808BD08B560B120208DF80000B1
:1039F00028208DF8010030208DF8020038208DF845
:103A0000030004E0A3220421684606F0C7FC6A46CE
:103A1000042140F69E20FFF7C5F8FEF720F908BD07
:103A200008B560B1C0208DF80000C2208DF80100FB
:103A3000C4208DF80200C6208DF8030004E08B221C
:103A40000421684606F0AAFC6A46042140F6982044
:103A5000FFF7A8F8FEF703F908BD0EB54FF497631A
:103A600008B1E9A000E0EBA007C88DE807006A46AE
:103A700009211846FFF796F80EBD3EB50446022010
:103A80008DF80000CA208DF80100E3208DF80200B7
:103A900009208DF803006A4604216820FFF782F8A8
:103AA000A3208DF80000610609D5C0218DF8011012
:103AB000C8218DF80210C2218DF8031005E08DF8A1
:103AC00001008DF802008DF8030014F4C07F09D0C6
:103AD000C4218DF80410CC218DF80510C6218DF875
:103AE000061005E08DF804008DF805008DF806003D
:103AF0008DF808008DF807008DF809006A460A2144
:103B000040F6A720FFF74EF8A0074FF0D80503D0E6
:103B100020208DF8000001E08DF800506A46012158
:103B200040F6B620FFF73EF8A00601D5012000E0E0
:103B30000020FFF792FF14F4C07F1ED0E0050AD5E5
:103B4000B2208DF800008B208DF80100B6208DF892
:103B500002009B2009E0B0208DF8000080208DF845
:103B60000100B4208DF8020090208DF803006A4611
:103B7000042140F6A220FFF715F8E0074FF40B638D
:103B800023D0F8208DF800006A4601211846FFF77F
:103B900009F8FA210720FFF78FFD0720FFF736FE0F
:103BA0000120FFF753FE6420FFF761FE4FF4FA7027
:103BB000FFF76DFEC8219A48FFF779FE2820FFF72E
:103BC0008EFE0A20FFF79BFE06E08DF800506A4645
:103BD00001211846FEF7E6FFA00703D5D9208DF88E
:103BE000000001E08DF800506A46012140F23D706E
:103BF000FEF7D8FF600701D5012000E00020FFF7A5
:103C00000FFFE00601D5012000E00020FFF7EBFEEA
:103C1000844D44F008006881FEF721F80020A87365
:103C2000600601D50620A87314F4C07F02D0A87BDB
:103C3000801DA87314F0140F02D0A87B1030A87355
:103C4000A00702D0A87B001DA87300203EBD7549C7
:103C5000498901800020704700B573A187B00EC963
:103C60008DE80E0073A10DF10C0C0EC98CE80E004E
:103C700040F68223012807D0022803D04FF0FF30FE
:103C800007B000BD6A4600E003AA0B211846FEF704
:103C900089FFF5E72DE9FF4F89B01646DDE9165299
:103CA0000024DFF880810F4681462C80A24698F8D8
:103CB0000E006946FEF7F4FC4FF0FF3B18B1584682
:103CC0000DB0BDE8F08FB8F80A0010F0140F4CD01A
:103CD000BDF800109DF8022049BA090441EA022CFF
:103CE0009DF803104CEA010CC6F800C0BDF80410A2
:103CF0009DF8062049BA090441EA02239DF80710FD
:103D00000B437360BDF808109DF80A2049BA0904F6
:103D100041EA02219DF80B201B141143B160BDF84C
:103D20000C209DF80E4052BA120442EA04229DF87B
:103D30000F4009142243F2604FEA2C4612147643D6
:103D4000494303FB036302FB021119441024A1F150
:103D50007061B1F1007F04D9FDF781FFA5F800A0E3
:103D6000ADE7298841F48071298041066A460ED565
:103D70001119A41D0B885BBA3B804B885BBA7B8012
:103D8000898849BAB980298841F00801298010F44E
:103D9000C07F11D01119A41D0B885BBAA9F800309F
:103DA0004B885BBAA9F80230898849BAA9F804108F
:103DB000298841F070012980800718D01444E078E8
:103DC00000F0C00500F03F016078C00707D0C808C8
:103DD00001F00701D8F80020491C02B19047607833
:103DE000000704D5D8F8041009B1A80988470C9831
:103DF000FEF7DDF9002063E70A49086000207047FC
:103E00000849486000207047B8AAB38DB4980D35B2
:103E10005D000000B8AAAAAAB088C3C5C700000008
:103E200009E3CA0280070020D8B1B9F38BA391B689
:103E300009B4D900DAB1B9F38BA391B6DAB4DA00D8
:103E400010B56FF0040000F0CEFD20482049006856
:103E5000B0FBF1F01F49C0B200EB40020870C2EBAA
:103E6000C0104FF6FF7202EAC000488010BD194929
:103E7000097848434FF0E021486100238B610869CD
:103E800040F0010008610869C20701D0C003FAD5FB
:103E9000086920F0010008618B6170470D4949886D
:103EA00048434FF0E021486100238B61086940F0EE
:103EB000010008610869C20701D0C003FAD508698A
:103EC00020F0010008618B617047000004000020B1
:103ED00000127A00860000207047704770B50546D2
:103EE00086B0012144F2040000F055FB4FF400704D
:103EF000ADF8100003248DF812401820334E8DF8D1
:103F0000130004A9304600F05EF93015ADF810003A
:103F100004208DF8130004A9304600F054F9252040
:103F20008DF814008DF815408DF8164001208DF89D
:103F3000170005A800F017FD0020ADF80400ADF84B
:103F40000600ADF80800ADF80C000C20204CADF8D0
:103F50000A0000956946204600F09CFB012240F2D1
:103F60002551204600F013FC0121204600F005FCFD
:103F700006B070BD70B5164C40F22551204600F0D9
:103F8000BDFC00280ED0204600F051FC114AC1B201
:103F90001088030406D444044FF0000306D50A2910
:103FA00001D0138070BD40F400400DE00D2909D010
:103FB000C0F30D04084D401C80B229551080C7285D
:103FC000EFD870BD40F48040108070BD0008014003
:103FD000003801408A000020900700203EB50121F2
:103FE000082000F0D8FA0121084600F0D4FA052193
:103FF000012000F09CF92020012400908DF806405B
:1040000000208DF804000C208DF80500684601F0B2
:1040100071FC17208DF808008DF80B4002208DF8F8
:10402000090004208DF80A0002A800F09CFC3EBDA7
:1040300010B500F0A3F94FF48034204600F0B7F932
:1040400000F0E2F901281CD14FF4E011204600F005
:10405000FCF9002000F010FAA01100F014FA002082
:1040600000F018FA012000F0F8F9392000F0B7F953
:104070000028FAD0022000F0F3F900F0F8F908283F
:10408000FBD101214FF4037000F085FA0121BDE856
:104090001040084600F07FBA70B5202001F07AFC8D
:1040A000002820D0104D2021284600F0E2F8A8B9C1
:1040B0000E4C207890B15020FFF7F0FE20212846CA
:1040C00000F0D7F800280ED1FFF7B2FF00202070D3
:1040D00005F025FE0121064801F0E7FFBDE870402C
:1040E000202001F065BC70BD000C01409000002054
:1040F0003F6400080648804706480047FEE7FEE7A1
:10410000FEE7FEE7FEE7FEE7FEE7FEE7FEE7FEE787
:104110003D040008ED0000088F4910B5884206D123
:104120000121042000F049FA002104203BE08B49E2
:10413000884206D10121082000F03FFA0021082022
:1041400031E08749884206D10121102000F035FA7C
:104150000021102027E08349884206D10121202038
:1041600000F02BFA002120201DE07F49884206D173
:104170000121402000F021FA0021402013E07B497A
:10418000884206D10121802000F017FA002180200A
:1041900009E0774988420AD184150121204600F0C0
:1041A0000CFA00212046BDE8104000F006BA10BD10
:1041B00010B50121084600F000FA0021BDE81040CA
:1041C000012000F0FAB9F0B5CC78002204F00F031A
:1041D000E40601D58C7823430C784FF00F0C14F0D3
:1041E000FF0F4FF0010E1BD005680E880EFA02F487
:1041F0002640A64210D196000CFA06F725EA0707DA
:1042000003FA06F5CE783D43282E02D0482E02D080
:1042100002E0446100E00461521C082AE5D3056015
:104220000A88FF2A1CD94468002202F108060EFA07
:1042300006F50E882E40AE420ED196000CFA06F717
:10424000BC4303FA06F7CE783C43282E00D14561E3
:10425000CE78482E00D10561521C082AE5D344606F
:10426000F0BD4FF6FF710180022181700421C17001
:1042700070470246002092680A4200D00120704731
:10428000806880B2704702460020D2680A4200D09F
:1042900001207047C06880B270470161704741617A
:1042A00070470AB10161704741617047C160704752
:1042B00041F48032826181618261816980697047E5
:1042C0002C4B10B51A684FF68074224042EA001059
:1042D0000843186010BD2849C8617047F0B5254CE7
:1042E000002801DAE36900E06368450D2E0185B21C
:1042F000C0F30157B540C0F30342032F05D0C602F7
:104300000AD503269640B34307E023F07062636842
:1043100023F07063636002E0AB4343F0706201B16D
:104320002A43002801DAE261F0BD6260F0BD10B5F9
:104330008A0721F003040F49120F21440F238C68D0
:1043400093409C438C608B68904003438B6010BD0E
:104350000949C1F8DC00704700080140000C014029
:10436000001001400014014000180140001C0140F1
:10437000002001400000014000002042A5480168E3
:1043800041F0010101604168A34A114041600168A8
:10439000A24A11400160016821F480210160416856
:1043A00021F4FE0141604FF41F018160704799497B
:1043B0000A6822F480320A600A6822F480220A60C5
:1043C000B0F5803F07D0B0F5802F03D1086840F4E6
:1043D000A02008607047086840F48030F9E7034681
:1043E000002059098B4A01290AD002290AD0516AB2
:1043F00003F01F02012393400B4200D001207047BD
:104400001168F5E7116AF3E718B500204FF4A064CE
:1044100000903120FFF7E3FF0099491C0091A14271
:1044200001D00028F5D03120FFF7D9FF002800D0B7
:10443000012018BD774A116821F0F80141EAC00057
:1044400010607047764908607047724B5A6808439D
:1044500022F47C1210435860704771490866704717
:104460006C4A516821F0030101435160704769486B
:10447000406800F00C007047664A516821F0F00176
:10448000014351607047634A516821F4E061014380
:10449000516070475F4A516821F4605141EAC000A1
:1044A000506070475B4A0029517A01D0014300E017
:1044B0008143517270475A49C1F8D8007047554A34
:1044C000516821F440410143516070475149002235
:1044D00081F8202081F82020012802D0042802D170
:1044E000052081F8200070474E490860704749490F
:1044F0000A6A02430A6270474A49443908607047B1
:1045000030B5444A5168484B11F00C0103D00429DE
:1045100001D0082901D0036012E05168536801F40A
:1045200070114FF0020413F4803F04EB914102D06C
:1045300053689B0301D53D4B00E03B4B5943016061
:1045400051680F2303EA1111394B5C5C0168E140AB
:1045500041605468072505EA14241C5D21FA04F41F
:104560008460546805EAD4241B5DD940C160526858
:10457000032303EA92322E4B1B1F9A5CB1FBF2F12C
:10458000016130BD234A0029516901D0014300E097
:104590008143516170471F4A0029916901D001434D
:1045A00000E08143916170471A4A0029D16901D026
:1045B000014300E08143D1617047164A0029D16868
:1045C00001D0014300E08143D1607047114A0029C6
:1045D000116901D0014300E0814311617047114925
:1045E0004039086070470E49C86470470949C8716E
:1045F00070470848416A41F0807141627047054A3E
:104600000146002092680A4200D00120704701490B
:1046100088727047001002400000FFF8FFFFF6FEAE
:10462000000042428004424200127A0000093D002C
:1046300095000020C44910B588420AD101218C039D
:104640002046FFF7BAFF2046BDE810400021FFF7E3
:10465000B4BFBE49884202D101214C0410E0BC49DC
:10466000884202D101218C040AE0BA49884202D171
:104670000121CC0404E0B84988420AD101210C058B
:104680002046FFF7A3FF2046BDE810400021FFF7BA
:104690009DBF10BD30B50446008A85B00D464CF66E
:1046A000FF710840E98801432182A0894EF6F31189
:1046B0000840A9882A8911436A8902431143A181CC
:1046C000A08A4FF6FF410840A9890143A1826846AC
:1046D000FFF716FF9C48844201D1039800E002983E
:1046E000A189090400EBC00101EB0010296801D584
:1046F000490000E08900B0FBF1F06422B0FBF2F168
:1047000009010B096FF018056B4300EB8300A389C7
:104710001D044FF0320306D503EBC000B0FBF2F0EE
:1047200000F0070005E003EB0010B0FBF2F000F032
:104730000F000843208105B030BD4FF416510160D1
:1047400000218180C18001810C22428181817047DA
:1047500010B5028A4FF2FF031A400B884C8823439E
:104760008C88C9880C4323431343038210BD002166
:10477000018041808180C18070470029818902D0F9
:1047800041F4005101E021F400518181704710B5DE
:10479000C1F3421301F01F040121A140012B07D0F6
:1047A000022B07D01430002A026805D00A4304E027
:1047B0000C30F8E71030F6E78A43026010BD002A9B
:1047C000828A01D00A4300E08A4382827047028ACB
:1047D00022F00F020282028A0A4302827047828913
:1047E00022F40062828182890A4382817047002913
:1047F000818902D041F0020101E021F002018181B2
:104800007047028A22F020020282028A0A43028250
:1048100070470029018A02D041F4804101E021F46F
:10482000804101827047C1F3080181807047808810
:10483000C0F308007047818941F001018181704710
:10484000028BD2B20283028B42EA012101837047BC
:10485000028B02F47F420283028B0A430283704779
:104860000029818A02D041F0200101E021F02001DD
:10487000818270470029818A02D041F0100101E055
:1048800021F01001818270470029818A02D041F015
:10489000080101E021F00801818270470029818927
:1048A00002D041F4004101E0C1F30E018181704763
:1048B0000029818A02D041F4006101E021F4006105
:1048C00081827047828A22F004028282828A0A43AD
:1048D000828270470029818A02D041F0020101E002
:1048E00021F00201818270470246002012880A42AC
:1048F00000D001207047C9430180704770B501F0B6
:104900001F0501260024C1F3421306FA05F2012B0C
:104910000FD0022B0FD0838A4FEA11210088134257
:1049200006FA01F600EA060001D000B10124204693
:1049300070BD8389F0E7038AEEE70A0A01219140FE
:10494000C943018070470000003801400044004026
:1049500000480040004C00400050004028490843F7
:1049600028490860704730B50F23C27801780125C7
:10497000F2B1244A126801F1E02102F4E062C2F5CA
:10498000E062120AC2F10404D3404278A240847863
:104990001C401443220181F80024007800F01F011C
:1049A0008D404009800000F1E020C0F8005130BD8A
:1049B00001F01F0085404809800000F1E020C0F8A8
:1049C000805130BD104A114001430E48001F016064
:1049D00070470C4A121D0029116801D0014300E004
:1049E0008143116070474FF0E0210428086903D02B
:1049F00020F004000861704740F00400FAE700006E
:104A00000000FA050CED00E080FFFF1FF94910B52A
:104A1000884202D10121C41486E0B0F1804F09D050
:104A2000F54988420DD101210220FFF7CFFD002179
:104A3000022064E001210846FFF7C8FD00210120A3
:104A40005DE0EE49884206D101210420FFF7BEFD5A
:104A50000021042053E0EA49884206D101210820C0
:104A6000FFF7B4FD0021082049E0E649884206D15D
:104A700001211020FFF7AAFD002110203FE0E249AC
:104A8000884206D101212020FFF7A0FD002120202F
:104A900035E0DE49884202D10121441444E0DC497A
:104AA000884202D10121CC043EE0DA49884202D199
:104AB00001210C0538E0D849884202D101214C057A
:104AC00032E0D649884206D101214020FFF77EFD21
:104AD0000021402013E0D249884206D101218020E4
:104AE000FFF774FD0021802009E0CE4988420AD1F9
:104AF000841501212046FFF769FD00212046BDE80D
:104B00001040FFF763BDC849884202D101210C045F
:104B10000AE0C649884202D101214C0404E0C4499C
:104B200088420AD101218C042046FFF746FD204629
:104B3000BDE810400021FFF740BD10BD30B5028830
:104B4000AC4CB24DA0420DD0A8420BD0B0F1804F7A
:104B500008D0A94B984205D0A84B984202D0A84B48
:104B6000984203D122F070034A881A43A54B984219
:104B700006D0A54B984203D022F44073CA881A434A
:104B800002808A8882850A880285A0420AD0A842CB
:104B900008D0A54A904205D0A44A904202D0A44A27
:104BA000904201D1097A01860121818230BD30B560
:104BB000028C22F001020284028C8388048B22F092
:104BC000020224F073050C882C430D8915434A8892
:104BD0002A43884DA8420BD08C4DA84208D0924D54
:104BE000A84205D0914DA84202D0914DA8420DD1C6
:104BF00022F008054A8923F440732A4322F0040571
:104C00008A882A438D891D43CB892B438380048363
:104C1000C9888186028430BD70B5028C22F01002F2
:104C20000284028C8388048B0D8824F4E6464FF6B8
:104C3000FF7404EA052535430E8922F0200204EAB8
:104C4000061616434A8804EA02123243694EB042FD
:104C500002D06E4EB04215D122F080064A8923F46C
:104C6000406304EA0212324322F040068A8804EAD2
:104C7000021232438E8904EA86061E43CB8904EA77
:104C80008303334383800583C9880187028470BD11
:104C900070B5028C22F480720284028C8388848B2B
:104CA0000D8824F0730425430E894FF6FF7422F417
:104CB000007204EA062616434A8804EA02223243B6
:104CC0004C4EB04202D0514EB04215D122F4006693
:104CD0004A8923F4405304EA0222324322F48066D4
:104CE0008A8804EA022232438E8904EA06161E43A9
:104CF000CB8904EA0313334383808583C988818782
:104D0000028470BD70B5028C22F480520284058C3E
:104D10008288838B0C8823F4E6464FF6FF7303EA00
:104D20000424344325F400560D8903EA0535354340
:104D30004E8803EA06362E432E4DA84202D0334D4C
:104D4000A84205D122F480458A8903EA82122A43C7
:104D500082808483C988A0F84010068470BD828B4D
:104D600022F440628283828B4FF6FF7303EA0121B3
:104D70000A4382837047828B22F00C028283828BEB
:104D80000A4382837047028B22F440620283028BC3
:104D90004FF6FF7303EA01210A4302837047F0B51F
:104DA000048C24F010040484078B048C4FF6FF75E8
:104DB00027F4734705EA03333B4305EA02221A430B
:104DC0000C4B05EA011698420ED0104B98420BD0BE
:104DD000B0F1804F08D0084B984205D0074B98425D
:104DE00002D0074B984225D124F02001314341F0F5
:104DF000100124E0002C01400004004000080040A5
:104E0000000C00400010004000140040003401403D
:104E1000004C014000500140005401400018004087
:104E2000001C0040002000400040014000440140C0
:104E30000048014024F0A0030B4343F0100102831B
:104E40000184F0BD028B22F00C020283028B0A4324
:104E50000283704770B5048C24F001040484058B30
:104E6000048C4FF6FF7606EA0313134325F0F3058F
:104E7000F84A2B4390420ED0F74A90420BD0B0F143
:104E8000804F08D0F54A904205D0F54A904202D0B2
:104E9000F44A904202D124F0020201E024F00A0216
:104EA0000A4342F001010383018470BD2DE9F84FEC
:104EB0000D4604460888E74FDFF89CC3DFF89C8363
:104EC000DFF89C934988AA882B894FF0804A48B321
:104ED00004282FD04FF6FF760828934632D0208C36
:104EE0009E4620F480502084A38B208C06EA013259
:104EF000009223F4734306EA0B221A4306EA0E33A8
:104F00001343BC420AD0644508D0544506D04445FA
:104F100004D04C4502D0D34A944242D120F40050F0
:104F2000009940E02046FFF795FFE9882046BDE85C
:104F3000F84F87E72046FFF732FFE9882046BDE8B3
:104F4000F84F20E7208C20F480702084B4F81CE017
:104F5000208C06EA031306EA01222EF0F30E43EA40
:104F60000B0343EA0E030092BC420AD0644508D00A
:104F7000544506D0444504D04C4502D0B94A944229
:104F800003D120F40070009901E020F42060084370
:104F900040F48070A3832084E9882046BDE8F84F60
:104FA000E9E620F40240084340F48050A3832084C3
:104FB000E9882046BDE8F84FD1E62DE9F0410C46DE
:104FC000002649880746012501B90226A288012A40
:104FD00000D10225208823890028384610D0FFF709
:104FE000DEFEE1883846FFF7CEFE23892A463146A9
:104FF0003846FFF72FFFE1883846BDE8F04121E74A
:10500000FFF728FFE1883846FFF71CFF23892A466F
:1050100031463846FFF7C3FEE1883846BDE8F04127
:10502000B1E610B50A884B88CC881A438B88234395
:105030001A430B891A434B8989891A430A43A0F8FA
:10504000442010BD4FF6FF71818000210180C18096
:105050004180017270470021018041808180C180C0
:10506000018141818181C18170470021018041809E
:1050700001228280C180018170470021018041802E
:105080008180C1800181418181817047002901882F
:1050900002D041F0010101E021F0010101807047DF
:1050A000002930F8441F02D041F4004101E0C1F36F
:1050B0000E0101807047002A828901D00A4300E076
:1050C0008A4382817047818270471143A0F848105B
:1050D0007047002A828901D00A4300E08A43828116
:1050E0007047018921F0070101817047028922F090
:1050F00070020A430281704700B50346FFF7F6FFCE
:10510000188940F00700188100BD70B516460D469D
:10511000602904464FF0010231460AD0FFF79AFE9B
:1051200029462046FFF7E2FF208940F00700208152
:1051300070BDFFF734FEF3E730B504894FF6FF7515
:1051400005EA03231343E4B20B432343038130BD39
:1051500010B50446FFF7F0FF208940F0770020816A
:1051600010BD10B50446FFF7E7FF208940F48040EA
:10517000208110BD018582827047028822F0700272
:105180000A430280704770B50589048B068C25F0B0
:1051900007050D434FF6FC410C4040F201110C4352
:1051A0004FF6FF7101EA031126F022061143314345
:1051B00005810483018470BD028B22F070020A43D2
:1051C00002837047028B4FF6FF7322F4E04203EA3A
:1051D0000121114301837047828B22F070020A4340
:1051E00082837047828B4FF6FF7322F4E04203EA1A
:1051F00001211143818370470029018802D041F0C9
:10520000800101E021F08001018070470029818840
:1052100002D041F0040101E021F0040181807047D7
:105220000029818802D041F0080101E021F0080145
:10523000818070470029818802D041F0010101E09E
:1052400021F0010181807047028B22F008020A439D
:1052500002837047002C01400034014000040040EC
:1052600000080040000C0040028B4FF6FF7322F450
:10527000006203EA012111430183EAE7828B22F0F5
:1052800008020A438283E4E7828B4FF6FF7322F41D
:10529000006203EA012111438183DAE7028B22F0E5
:1052A00004020A430283D4E7028B4FF6FF7322F411
:1052B000806203EA012111430183CAE7828B22F055
:1052C00004020A438283C4E7828B4FF6FF7322F401
:1052D000806203EA012111438183BAE7028B22F045
:1052E00080020A430283B4E7028B4FF6FF73C2F3D6
:1052F0000E0203EA012111430183AAE7828B22F007
:1053000080020A438283A4E7828B4FF6FF73C2F3C5
:105310000E0203EA0121114381839AE7028C22F0F5
:1053200002020A43028494E7028C22F008020A4334
:1053300002848EE7028C4FF6FF7322F0200203EA0C
:1053400001111143018484E7028C4FF6FF7322F0B0
:10535000800203EA0111114301847AE7028C4FF6BF
:10536000FF7322F4007203EA01211143018470E704
:10537000028C4FF6FF7322F4006203EA012111430D
:10538000018466E7028C4FF6FF7322F4005203EAB1
:105390000131114301845CE710B50123048C8B407B
:1053A0009C430484038C8A401343038410BD10B5CE
:1053B0000423048C8B409C430484038C8A40134355
:1053C000038410BD30B50124058C00F118038C4016
:1053D000A543058489B108290FD0091FC1F34E00E8
:1053E0001844016821F4E041016001684FF6FF7341
:1053F00003EA02221143016030BD03EB5100016852
:1054000021F0700101600168F4E70029018802D0F1
:1054100041F0020101E021F00201018019E70029B9
:10542000018802D041F0040101E021F00401018073
:105430000FE70029818802D041F0800101E021F0CE
:105440008001818005E7028822F00802028002883C
:105450000A430280FDE6828822F070028280828800
:105460000A438280F5E6028922F00702028102895E
:105470000A430281EDE6028922F08002028102895C
:105480000A430281E5E68184E3E68185E1E68186DF
:10549000DFE60187DDE68187DBE6A0F84010D8E68D
:1054A000028822F44072028002880A430280D0E619
:1054B000808ECEE6008FCCE6808FCAE6B0F8400042
:1054C000C7E6808CC5E6008DC3E602460020128A3E
:1054D0000A4200D00120BCE6C9430182B9E6024677
:1054E0000020138A92890B4202EA010202D0002AAC
:1054F00000D00120ADE6C9430182AAE6C54910B536
:10550000884202D1012144150AE0C349884202D1F0
:105510000121041504E0C14988420AD10121CC03CC
:105520002046FFF74AF82046BDE810400021FFF76B
:1055300044B810BD10B54268B94B0C791A400B68DD
:1055400042EA0422134343608268B64B1A40D1E911
:10555000024323434C7942EA440213438360C26A04
:10556000097C22F47002491EC9B242EA0151C162AB
:1055700010BD00210160017141718160C160012194
:10558000017470470029816802D041F0010101E0F7
:1055900021F00101816070470029816802D041F447
:1055A000807101E021F4807181607047002A4268B7
:1055B000C9B201D00A4300E08A4342607047816863
:1055C00041F00801816070470146002089680907A1
:1055D00000D501207047816841F004018160704767
:1055E000014600208968490700D50120704700293D
:1055F000816802D041F4A00101E021F4A0018160A2
:105600007047014600208968490200D50120704793
:105610004268491E22F4604242EA413141607047CB
:105620000029416802D041F4006101E021F40061E9
:105630004160704770B5072609290AD9C568A1F1EC
:105640000A0404EB4404A640B543A3401D43C560CF
:1056500007E0056901EB4104A640B543A3401D43A3
:1056600005611F23072A09D2446B521E02EB8202F6
:1056700093409C4391400C43446370BD0D2A09D272
:10568000046BD21F02EB820293409C4391400C4377
:10569000046370BDC46A0D3A02EB820293409C43DE
:1056A00091400C43C46270BD0029816802D041F46E
:1056B000801101E021F4801181607047C06C80B2DC
:1056C000704754484C30006870470029416802D048
:1056D00041F4806101E021F480614160704700295C
:1056E000416802D041F4805101E021F480514160D1
:1056F0007047826822F4E0420A43826070470029C2
:10570000816802D041F4004101E021F40041816050
:1057100070470029816802D041F4021101E021F4B0
:10572000021181607047014600208968890200D516
:105730000120704770B5072609290AD9C568A1F16B
:105740000A0404EB4404A640B543A3401D43C560CE
:1057500007E0056901EB4104A640B543A3401D43A2
:105760000561836BC3F30154121B921C02EB82028E
:105770001F249440A34391400B43836370BD826B0D
:10578000491E22F4401242EA01518163704708B574
:1057900008440090026008BD08B508442830009015
:1057A000006880B208BD42681F4B1A400A4342603D
:1057B0007047416282627047426822F01F020A43CA
:1057C00042607047134908310028086802D040F44D
:1057D000000001E020F4000008607047024600204D
:1057E00012680A4200D001207047C9430160704727
:1057F00010B50246002054680B0AC9B20C4011686B
:10580000194202D0002C00D0012010BD6FEA1121F6
:10581000016070470024014000280140003C014025
:10582000FFFEF0FFFDF7F1FFFFFD3FFF10B5012187
:105830000C072046FEF7CAFE2046BDE810400021B6
:10584000FEF7C4BE214908627047204908617047CD
:105850001F4A116821F0E0010143116070471B49A4
:10586000C1F8A00070471A4B1A6822F003020243E5
:105870001A601848026842F004020260012905D04B
:1058800020BF016821F004010160704730BFF8E7D4
:105890000F48016841F004010160016841F0020114
:1058A00001600C48016841F00401016030BF70479D
:1058B000074A0146002052680A4200D00120704782
:1058C00003490A6842EA80000860704700000E42FF
:1058D0000070004010ED00E0374900200860091D0D
:1058E0000860091D0860091D0860334933481431F8
:1058F0000860704730B5304A8379016853B3136844
:105900008B431360111D0B680468A3430B6001797E
:1059100011440B68046823430B60274B0833196854
:105920000468A14319601C1D21680568A943216012
:105930004179102905D011440A68006802430A60C1
:1059400030BD19680268114319602168006801437D
:10595000216030BD0079104402688A43026030BD86
:105960000021016001710C2242718171704712495E
:1059700010310A6802430A60704701460E4A00204F
:10598000143212680A4200D0012070470A491431CB
:1059900008607047084A014600201268064B0A401A
:1059A00014331B680B4202D0002A00D0012070473C
:1059B000014914310860704700040140FFFF0F00E7
:1059C0009149002000EB40020A449278120601D56A
:1059D00001207047401CC0B20528F3D30020704757
:1059E000894A00EB4000104402880A808078887061
:1059F00070472DE9FC47854CFF274FF6FF76A078CE
:105A00008DF80600E0788DF80700002101A802F06B
:105A100027FF60782279401CC1B29DF8060000F093
:105A2000BBF8DFF8E49180460525A9F1140926E0CA
:105A300069462846FFF7D4FF9DF8020000061ED5F0
:105A4000072419E09DF802000121A140084213D06B
:105A50009DF801109DF80000224600F09DF8B0EB83
:105A6000080002D542F25F71084481B2B14203D20C
:105A700086B22F4689F80140641EE4B2E2D26D1E60
:105A8000EDB2D5D289F80070BDE8FC87B1E70F21EF
:105A90005D4804F08ABC01465B4800B514380078C4
:105AA000FF2803D0FFF79CFF012000BD002000BDB0
:105AB0005548143840787047534A00EB4000104472
:105AC0000A8802808978817093E710B5FFF791FF0B
:105AD0004D4C143C606800F0B8FC04F1080007C8A5
